:100000000C9434000C9449000C9449000C94490061
:100010000C9449000C9449000C9449000C9449003C
:100020000C9449000C9449000C9449000C9449002C
:100030000C9449000C9449000C9449000C9449001C
:100040000C9449000C9449000C9449000C9449000C
:100050000C9449000C9449000C9449000C944900FC
:100060000C9449000C94490011241FBECFEFD8E036
:10007000DEBFCDBF11E0A0E0B1E0E4E5F1E002C0F9
:1000800005900D92A231B107D9F70E9479000C9426
:10009000A8000C94000026E0AC01249FC001259F1D
:1000A000900D1124FC01E050FF4F0280F381E02D00
:1000B000208181E090E001C0880F6A95EAF7822BE9
:1000C0008083089526E0AC01249FC001259F900DF8
:1000D0001124FC01E050FF4F0190F081E02D2081C0
:1000E00081E090E001C0880F6A95EAF7822780835B
:1000F0000895CF93DF9300D000D0CDB7DEB721E0D5
:1001000030E041E050E065E070E080E090E00E9487
:100110004B0065E070E080E090E00E946200198290
:100120001A821B821C8289819A81AB81BC81803AB0
:100130009648A140B1056CF789819A81AB81BC8159
:100140000196A11DB11D89839A83AB83BC83EBCF3C
:04015000F894FFCF51
:100154002500240023002800270026002B002A0065
:02016400290070
:00000001FF
